8=FIX.4.2|9=67|35=A|34=1|49=server|52=20190710-13:33:30.026|56=client|98=0|108=30|10=016|8=FIX.4.2|9=55|35=0|34=2|49=server|52=20190710-13:34:00.856|56=client|10=237|8=FIX.4.2|9=55|35=0|34=3|49=server|52=20190710-13:34:30.865|56=client|10=241|8=FIX.4.2|9=55|35=0|34=4|49=server|52=20190710-13:35:00.859|56=client|10=243|8=FIX.4.2|9=67|35=A|34=5|49=server|52=20190710-13:42:58.935|56=client|98=0|108=30|10=039|8=FIX.4.2|9=55|35=0|34=6|49=server|52=20190710-13:43:29.164|56=client|10=244|8=FIX.4.2|9=55|35=0|34=7|49=server|52=20190710-13:43:59.783|56=client|10=255|8=FIX.4.2|9=55|35=0|34=8|49=server|52=20190710-13:44:29.775|56=client|10=255|8=FIX.4.2|9=55|35=0|34=9|49=server|52=20190710-13:44:59.780|56=client|10=255|8=FIX.4.2|9=56|35=0|34=10|49=server|52=20190710-13:45:29.782|56=client|10=040|8=FIX.4.2|9=56|35=0|34=11|49=server|52=20190710-13:45:59.779|56=client|10=050|8=FIX.4.2|9=56|35=0|34=12|49=server|52=20190710-13:46:30.156|56=client|10=030|8=FIX.4.2|9=56|35=0|34=13|49=server|52=20190710-13:47:00.167|56=client|10=031|8=FIX.4.2|9=56|35=0|34=14|49=server|52=20190710-13:47:30.161|56=client|10=029|8=FIX.4.2|9=68|35=A|34=15|49=server|52=20190710-13:54:04.398|56=client|98=0|108=30|10=086|8=FIX.4.2|9=68|35=A|34=16|49=server|52=20190710-13:54:28.989|56=client|98=0|108=30|10=099|8=FIX.4.2|9=56|35=0|34=17|49=server|52=20190710-13:54:59.435|56=client|10=045|8=FIX.4.2|9=56|35=0|34=18|49=server|52=20190710-13:55:29.440|56=client|10=040|8=FIX.4.2|9=56|35=0|34=19|49=server|52=20190710-13:55:59.433|56=client|10=046|8=FIX.4.2|9=56|35=0|34=20|49=server|52=20190710-13:56:29.440|56=client|10=034|8=FIX.4.2|9=56|35=0|34=21|49=server|52=20190710-13:56:59.432|56=client|10=039|8=FIX.4.2|9=56|35=0|34=22|49=server|52=20190710-13:57:29.436|56=client|10=042|8=FIX.4.2|9=56|35=0|34=23|49=server|52=20190710-13:57:59.441|56=client|10=042|8=FIX.4.2|9=56|35=0|34=24|49=server|52=20190710-13:58:29.437|56=client|10=046|8=FIX.4.2|9=56|35=0|34=25|49=server|52=20190710-13:58:59.442|56=client|10=046|8=FIX.4.2|9=56|35=0|34=26|49=server|52=20190710-13:59:29.441|56=client|10=044|8=FIX.4.2|9=56|35=0|34=27|49=server|52=20190710-13:59:59.441|56=client|10=048|