8=FIX.4.2|9=67|35=A|34=1|49=client|52=20190710-13:33:29.764|56=server|98=0|108=30|10=033|8=FIX.4.2|9=55|35=0|34=2|49=client|52=20190710-13:33:59.771|56=server|10=246|8=FIX.4.2|9=55|35=0|34=3|49=client|52=20190710-13:34:29.767|56=server|10=250|8=FIX.4.2|9=55|35=0|34=4|49=client|52=20190710-13:34:59.761|56=server|10=248|8=FIX.4.2|9=67|35=A|34=5|49=client|52=20190710-13:42:58.794|56=server|98=0|108=30|10=042|8=FIX.4.2|9=55|35=0|34=6|49=client|52=20190710-13:43:29.170|56=server|10=241|8=FIX.4.2|9=55|35=0|34=7|49=client|52=20190710-13:43:59.779|56=server|10=004|8=FIX.4.2|9=55|35=0|34=8|49=client|52=20190710-13:44:29.770|56=server|10=250|8=FIX.4.2|9=55|35=0|34=9|49=client|52=20190710-13:44:59.775|56=server|10=003|8=FIX.4.2|9=56|35=0|34=10|49=client|52=20190710-13:45:29.778|56=server|10=045|8=FIX.4.2|9=56|35=0|34=11|49=client|52=20190710-13:45:59.777|56=server|10=048|8=FIX.4.2|9=56|35=0|34=12|49=client|52=20190710-13:46:30.159|56=server|10=033|8=FIX.4.2|9=56|35=0|34=13|49=client|52=20190710-13:47:00.170|56=server|10=025|8=FIX.4.2|9=56|35=0|34=14|49=client|52=20190710-13:47:30.163|56=server|10=031|8=FIX.4.2|9=68|35=A|34=15|49=client|52=20190710-13:54:04.216|56=server|98=0|108=30|10=075|8=FIX.4.2|9=68|35=A|34=16|49=client|52=20190710-13:54:28.889|56=server|98=0|108=30|10=098|8=FIX.4.2|9=56|35=0|34=17|49=client|52=20190710-13:54:58.884|56=server|10=052|8=FIX.4.2|9=56|35=0|34=18|49=client|52=20190710-13:55:28.888|56=server|10=055|8=FIX.4.2|9=56|35=0|34=19|49=client|52=20190710-13:55:58.883|56=server|10=054|8=FIX.4.2|9=56|35=0|34=20|49=client|52=20190710-13:56:28.888|56=server|10=049|8=FIX.4.2|9=56|35=0|34=21|49=client|52=20190710-13:56:58.882|56=server|10=047|8=FIX.4.2|9=56|35=0|34=22|49=client|52=20190710-13:57:28.893|56=server|10=048|8=FIX.4.2|9=56|35=0|34=23|49=client|52=20190710-13:57:58.890|56=server|10=049|8=FIX.4.2|9=56|35=0|34=24|49=client|52=20190710-13:58:28.883|56=server|10=050|8=FIX.4.2|9=56|35=0|34=25|49=client|52=20190710-13:58:58.892|56=server|10=054|8=FIX.4.2|9=56|35=0|34=26|49=client|52=20190710-13:59:29.445|56=server|10=048|8=FIX.4.2|9=56|35=0|34=27|49=client|52=20190710-13:59:59.445|56=server|10=052|