2019-06-05T15:09:18.427,
8=FIX.4.2|9=138|35=D|34=1709|49=khadija|52=20190605-13:09:18.395|56=Quence|11=1559740158381|21=1|38=15|40=1|54=2|55=ASD|59=0|60=20190605-13:09:18.395|10=228|
2019-06-05T15:09:39.687,
8=FIX.4.2|9=138|35=D|34=1710|49=khadija|52=20190605-13:09:39.687|56=Quence|11=1559740179689|21=1|38=10|40=1|54=1|55=CVC|59=0|60=20190605-13:09:39.687|10=246|
2019-06-05T15:09:59.948,
8=FIX.4.2|9=144|35=D|34=1711|49=khadija|52=20190605-13:09:59.948|56=Quence|11=1559740199936|21=1|38=25|40=1|54=5|55=AMD|59=0|60=20190605-13:09:59.948|114=N|10=023|
2019-06-05T15:10:15.116,
8=FIX.4.2|9=138|35=D|34=1712|49=khadija|52=20190605-13:10:15.116|56=Quence|11=1559740215120|21=1|38=30|40=1|54=2|55=DIA|59=0|60=20190605-13:10:15.116|10=154|
