8=FIX.4.2|9=72|35=A|34=1|49=BANZAI|52=20190711-08:57:16.644|56=FIXIMULATOR|98=0|108=30|10=020|8=FIX.4.2|9=72|35=A|34=2|49=BANZAI|52=20190711-08:57:46.630|56=FIXIMULATOR|98=0|108=30|10=019|8=FIX.4.2|9=72|35=A|34=3|49=BANZAI|52=20190711-08:58:16.629|56=FIXIMULATOR|98=0|108=30|10=026|8=FIX.4.2|9=72|35=A|34=4|49=BANZAI|52=20190711-08:58:46.307|56=FIXIMULATOR|98=0|108=30|10=023|8=FIX.4.2|9=60|35=5|34=5|49=BANZAI|52=20190711-08:58:46.385|56=FIXIMULATOR|10=246|8=FIX.4.2|9=72|35=A|34=6|49=BANZAI|52=20190711-08:59:16.298|56=FIXIMULATOR|98=0|108=30|10=032|8=FIX.4.2|9=60|35=5|34=7|49=BANZAI|52=20190711-08:59:16.314|56=FIXIMULATOR|10=238|8=FIX.4.2|9=72|35=A|34=8|49=BANZAI|52=20190711-08:59:46.305|56=FIXIMULATOR|98=0|108=30|10=026|8=FIX.4.2|9=60|35=5|34=9|49=BANZAI|52=20190711-08:59:46.305|56=FIXIMULATOR|10=243|8=FIX.4.2|9=73|35=A|34=10|49=BANZAI|52=20190711-09:00:16.309|56=FIXIMULATOR|98=0|108=30|10=056|8=FIX.4.2|9=61|35=5|34=11|49=BANZAI|52=20190711-09:00:16.325|56=FIXIMULATOR|10=015|8=FIX.4.2|9=73|35=A|34=12|49=BANZAI|52=20190711-09:02:59.270|56=FIXIMULATOR|98=0|108=30|10=064|8=FIX.4.2|9=61|35=5|34=13|49=BANZAI|52=20190711-09:02:59.379|56=FIXIMULATOR|10=035|8=FIX.4.2|9=73|35=A|34=14|49=BANZAI|52=20190711-09:03:29.265|56=FIXIMULATOR|98=0|108=30|10=068|8=FIX.4.2|9=61|35=5|34=15|49=BANZAI|52=20190711-09:03:29.265|56=FIXIMULATOR|10=029|8=FIX.4.2|9=73|35=A|34=16|49=BANZAI|52=20190711-09:03:59.263|56=FIXIMULATOR|98=0|108=30|10=071|8=FIX.4.2|9=61|35=5|34=17|49=BANZAI|52=20190711-09:03:59.263|56=FIXIMULATOR|10=032|8=FIX.4.2|9=73|35=A|34=18|49=BANZAI|52=20190711-09:04:29.259|56=FIXIMULATOR|98=0|108=30|10=076|8=FIX.4.2|9=61|35=5|34=19|49=BANZAI|52=20190711-09:04:29.259|56=FIXIMULATOR|10=037|8=FIX.4.2|9=73|35=A|34=20|49=BANZAI|52=20190711-09:04:59.261|56=FIXIMULATOR|98=0|108=30|10=065|8=FIX.4.2|9=61|35=5|34=21|49=BANZAI|52=20190711-09:04:59.261|56=FIXIMULATOR|10=026|8=FIX.4.2|9=73|35=A|34=22|49=BANZAI|52=20190711-09:05:29.283|56=FIXIMULATOR|98=0|108=30|10=069|8=FIX.4.2|9=61|35=5|34=23|49=BANZAI|52=20190711-09:05:29.314|56=FIXIMULATOR|10=025|8=FIX.4.2|9=73|35=A|34=24|49=BANZAI|52=20190711-09:05:59.266|56=FIXIMULATOR|98=0|108=30|10=075|8=FIX.4.2|9=61|35=5|34=25|49=BANZAI|52=20190711-09:05:59.281|56=FIXIMULATOR|10=033|8=FIX.4.2|9=73|35=A|34=26|49=BANZAI|52=20190711-09:06:30.256|56=FIXIMULATOR|98=0|108=30|10=066|8=FIX.4.2|9=61|35=5|34=27|49=BANZAI|52=20190711-09:06:30.256|56=FIXIMULATOR|10=027|8=FIX.4.2|9=73|35=A|34=28|49=BANZAI|52=20190711-09:07:00.265|56=FIXIMULATOR|98=0|108=30|10=066|8=FIX.4.2|9=61|35=5|34=29|49=BANZAI|52=20190711-09:07:00.281|56=FIXIMULATOR|10=025|8=FIX.4.2|9=73|35=A|34=30|49=BANZAI|52=20190711-09:07:13.870|56=FIXIMULATOR|98=0|108=30|10=065|8=FIX.4.2|9=61|35=5|34=31|49=BANZAI|52=20190711-09:07:13.948|56=FIXIMULATOR|10=032|8=FIX.4.2|9=73|35=A|34=32|49=BANZAI|52=20190711-09:07:44.438|56=FIXIMULATOR|98=0|108=30|10=071|8=FIX.4.2|9=61|35=5|34=33|49=BANZAI|52=20190711-09:07:44.547|56=FIXIMULATOR|10=033|8=FIX.4.2|9=73|35=A|34=34|49=BANZAI|52=20190711-09:08:14.451|56=FIXIMULATOR|98=0|108=30|10=066|8=FIX.4.2|9=61|35=5|34=35|49=BANZAI|52=20190711-09:08:14.451|56=FIXIMULATOR|10=027|8=FIX.4.2|9=73|35=A|34=36|49=BANZAI|52=20190711-09:10:02.001|56=FIXIMULATOR|98=0|108=30|10=049|8=FIX.4.2|9=61|35=5|34=37|49=BANZAI|52=20190711-09:10:02.126|56=FIXIMULATOR|10=018|8=FIX.4.2|9=73|35=A|34=38|49=BANZAI|52=20190711-09:10:31.965|56=FIXIMULATOR|98=0|108=30|10=072|8=FIX.4.2|9=61|35=5|34=39|49=BANZAI|52=20190711-09:10:31.965|56=FIXIMULATOR|10=033|8=FIX.4.2|9=73|35=A|34=40|49=BANZAI|52=20190711-09:11:02.978|56=FIXIMULATOR|98=0|108=30|10=068|8=FIX.4.2|9=61|35=5|34=41|49=BANZAI|52=20190711-09:11:02.978|56=FIXIMULATOR|10=029|8=FIX.4.2|9=73|35=A|34=42|49=BANZAI|52=20190711-09:11:37.937|56=FIXIMULATOR|98=0|108=30|10=073|8=FIX.4.2|9=61|35=5|34=43|49=BANZAI|52=20190711-09:11:38.015|56=FIXIMULATOR|10=022|8=FIX.4.2|9=73|35=A|34=44|49=BANZAI|52=20190711-09:12:04.584|56=FIXIMULATOR|98=0|108=30|10=068|8=FIX.4.2|9=61|35=5|34=45|49=BANZAI|52=20190711-09:12:04.678|56=FIXIMULATOR|10=033|8=FIX.4.2|9=73|35=A|34=46|49=BANZAI|52=20190711-09:48:03.248|56=FIXIMULATOR|98=0|108=30|10=075|8=FIX.4.2|9=61|35=5|34=47|49=BANZAI|52=20190711-09:48:03.320|56=FIXIMULATOR|10=027|8=FIX.4.2|9=73|35=A|34=48|49=BANZAI|52=20190711-09:48:33.234|56=FIXIMULATOR|98=0|108=30|10=075|8=FIX.4.2|9=61|35=5|34=49|49=BANZAI|52=20190711-09:48:33.251|56=FIXIMULATOR|10=035|